:1000000064C098C07DC07CC07BC07AC079C078C015
:1000100077C076C075C074C073C072C071C070C044
:100020006FC06EC06DC005010906A10185010507FD
:1000300019E029E715002501750195088102950150
:1000400075082565190029658100C00600FF0901B2
:10005000A1018502150026FF007508958009009111
:1000600000750895800900B100C009022200010155
:10007000008096090400000103010100092101012B
:10008000000122440007058103080032120110011B
:10009000000000080912A4A30001010200011C03D2
:1000A0004B006500790062006F006100720064001F
:1000B0002000760031002E0031000C034D004B0073
:1000C00042006F0078000403090411241FBECFE52D
:1000D000D4E0DEBFCDBF10E0A0E6B0E0ECEBFCE08A
:1000E00002C005900D92AC36B107D9F721E0ACE61D
:1000F000B0E001C01D92A734B207E1F7E8D2DCC539
:100100007FCFA82FB92F80E090E041E050EA6095C2
:1001100030E009C02D9182279795879510F08427AC
:100120009527305EC8F36F5FA8F30895EADF8D93DB
:100130009D930895CF93CFB7CF93C395809BE9F755
:10014000809B09C0809B07C0809B05C0809B03C02B
:10015000809B01C0A3C0DF93C0912A01DD27CF5C43
:10016000DE4F809B02C0DF91EBCF2F930F931F9345
:1001700000B32FEF00FB20F94F933F9310B34FEFE5
:10018000012700FB21F93BE031C04E7F012F10B366
:10019000216028C0102F4D7F2260000000B329C0CD
:1001A0004B7F2460012F000010B32BC010B3477F9A
:1001B00028602AC04F7E00B320612CC04F7D10B351
:1001C00020622FC04F7B00B3206432C0422700B3AF
:1001D00049934FEF0000102710FB20F910B3157062
:1001E000C9F1297F91F2012700FB21F900B3237F98
:1001F00089F2315058F1102710FB22F910B3277EF5
:1002000079F2012700FB23F92F7C81F200B310273C
:1002100010FB24F92F7971F200C010B3012700FB05
:1002200025F92F7359F200C000B3102710FB26F9EF
:10023000223040F200C010B3012700FB27F9243020
:1002400028F64F77206810B30000F9CF10E41ABFEA
:10025000002719C03B503195C31BD04010E41ABF92
:100260000881033CF9F00B34E9F020912801198151
:10027000110F1213EDCF4A81441F093641F10D329F
:1002800011F0013E29F700932F013F914F911F91EB
:100290000F912F91DF91CAB7C6FD4FCFCF91CFBF3E
:1002A000CF91189520912F01222379F310912D01E0
:1002B000112369F534306AF130932D01209329011F
:1002C00010912A013BE0311B30932A0122C000919A
:1002D0002D010130E4F40AE54F7049F430916A00D1
:1002E00034FD19C000936A00C1E1D1E018C030911B
:1002F0001C0134FD10C000931C01CDE1D1E00FC002
:100300002795A8F45150A9F4220F0000F9CF4AE52F
:1003100003C042ED01C0432FC4E1D0E032E011B38D
:100320001560909A11BB02B320E415E05F9301279A
:1003300056E002BB279520F4515021F4220FF9CF4B
:10034000012756E000003B5A02BBD0F2279528F463
:10035000515029F4220F0000F9CF012756E02795CC
:1003600002BB20F4515021F4220FF9CF012756E0AF
:100370002991332302BB21F60A7F10912E01110F20
:10038000C651D04002BB11F01093280110E41ABFEF
:10039000016011B31A7F402F4A7F5F9100C000C0F7
:1003A00002BB11BB42BB71CF90B393FB992790F96D
:1003B00084E0282F291B80B3807190E033E095956D
:1003C00087953A95E1F7281B209366000895CF930F
:1003D000DF93CDB7DEB72D970FB6F894DEBF0FBE13
:1003E000CDBF80916600823069F028F48130B1F48D
:1003F0006091630009C0833071F0843079F46091BA
:10040000600002C06091620070E04DE050E0CE01FB
:10041000019624D40DC060916100F6CF2091680050
:10042000FE013196CE010E962193E817F907E1F708
:100430001092F5001092F600FE01319680E090E0F7
:10044000DC01AB50BF4F12961C921297219113966C
:100450002C9302968A31910599F72D960FB6F89450
:10046000DEBF0FBECDBFDF91CF910895CF93DF9355
:10047000CDB7DEB7E4970FB6F894DEBF0FBECDBFA1
:100480008DE0EEE6F0E0DE01989601900D928A95FF
:10049000E1F78DE0EBE7F0E0DE015B9601900D9275
:1004A0008A95E1F78DE0E8E8F0E0DE011E96019024
:1004B0000D928A95E1F78DE0E5E9F0E0DE01119615
:1004C00001900D928A95E1F76091630070E04DE034
:1004D00050E0CE018896DAD36091620070E04DE082
:1004E00050E0CE014B96D2D36091610070E04DE0B8
:1004F00050E0CE010E96CAD36091600070E04DE0EE
:1005000050E0CE010196C2D362DFE4960FB6F894B4
:10051000DEBF0FBECDBFDF91CF910895FC0180817A
:1005200080768032D9F48181982F977F913039F489
:1005300080E88093ED001092EE008FEF08958230F6
:1005400041F48FEE90E090932C0180932B0181E099
:1005500008958A3019F483818093EF0080E0089534
:10056000CF92DF92FF920F931F93CF93DF93CDB77C
:10057000DEB7E4970FB6F894DEBF0FBECDBF6C01B7
:10058000162F8091ED00803809F053C06091630010
:1005900070E04DE050E0CE01889660D3609162003B
:1005A00070E04DE050E0CE014B9658D36091610071
:1005B00070E04DE050E0CE010E9650D360916000A7
:1005C00070E04DE050E0CE01019648D341E850E0A4
:1005D0006FEF70E08CE690E03AD3809167008093F3
:1005E0006C008091660080936D008DE0FE01B896EE
:1005F000AEE6B0E001900D928A95E1F78DE0FE0144
:100600007B96ABE7B0E001900D928A95E1F78DE023
:10061000FE013E96A8E8B0E001900D928A95E1F7C0
:100620008DE0FE013196A5E9B0E001900D928A952A
:10063000E1F70091ED00011708F4102FF090EE00A3
:10064000412F50E06F2D70E064597F4FC601F6D204
:10065000F10EF092EE00011B0093ED00812FE49665
:100660000FB6F894DEBF0FBECDBFDF91CF911F91C3
:100670000F91FF90DF90CF9008951F93CF93DF935A
:10068000C091ED00C11107C080916D00813009F467
:10069000EDDE81E018C0D62FC61708F4DC2F1091CC
:1006A000EE00212F30E04D2F50E0BC01C9018459EC
:1006B0009F4FC4D21D0F1093EE00CD1BC093ED00D1
:1006C000CC2311F380E0DF91CF911F910895CF9358
:1006D000DF93CDB7DEB72D970FB6F894DEBF0FBE10
:1006E000CDBF98E1F92E8EE00FB6F894A895F1BC35
:1006F0000FBE81BD8FEF88BB17BA85BB14BA8AEFD6
:1007000082BB85E081BB11BA83BF0091F30010E08A
:10071000C801B4D2813009F47AC08FE08A8384E0C2
:100720008B838CE18C8382E18D83FE8287E18F83D2
:1007300099E2988799879A879B879C879D8761E034
:10074000C801ADD2809165006DE090E0A8D28091A3
:1007500064006091680090E0A2D28EE189838E01EE
:100760000F5F1F4F6801E12CF12CF60161916F01C1
:10077000809163009701280F311DC90190D23FEF8E
:10078000E31AF30A8DE0E816F10479F78FE1898323
:100790006801E12CF12CF60161916F0180916200FA
:1007A0009701280F311DC9017AD23FEFE31AF30AEE
:1007B0008DE0E816F10479F780E289836801E12C85
:1007C000F12CF60161916F01809161009701280F72
:1007D000311DC90164D23FEFE31AF30A8DE0E81638
:1007E000F10479F781E28983E12CF12CF801619120
:1007F0008F01809160009701280F311DC9014FD2F0
:100800003FEFE31AF30A8DE0E816F10479F7CCDD47
:10081000DEDD07D27894F12C00E0D12CEE24E394B5
:10082000A895CDD080E091E026B32923C1F430E033
:1008300020E046B3492329F42F5F223330F430E01F
:10084000F8CF3F5F3031A0F30AC0813031F008F4B7
:1008500061C0823021F416E062C015E060C0990FDB
:100860008F5F863009F780E091E023B3292329F5D3
:1008700030E020E043B3492329F42F5F223330F4E2
:1008800030E0F8CF3F5F3031A0F317C0823079F00D
:1008900038F4882309F440C0813079F418E03FC06F
:1008A000843049F030F0853041F41CE038C019E064
:1008B00036C01AE034C01BE032C0990F8F5F87301A
:1008C000A1F680E091E020B32923F1F430E020E0AC
:1008D00040B3492329F42F5F223330F430E0F8CFBE
:1008E0003F5F3031A0F310C0853051F018F48130F3
:1008F000A9F00AC0863031F0873031F413E00FC020
:1009000011E00DC012E00BC0990F8F5F8830D9F64F
:1009100010E005C014E003C017E001C01DE0D112D3
:1009200001E008B600FE0AC0E8BE8091EF0088230F
:1009300029F094E09F1530F4EBEFFE0E011103C097
:10094000D12E6ECFF82E80911C0184FD02C001E0F3
:10095000F7CFE12FF0E0EE0FFF1FEB50FF4F81814B
:100960008093F20080818093F100E092F00063E0D8
:1009700080EF90E002D000E0E3CFCF93C62F20912C
:100980001C0124FF07C030911D0128E82327209374
:100990001D0103C02AE520931C01DC01EEE1F1E01A
:1009A0008C2F8E0F9D9191938E13FCCF6C2F8EE127
:1009B00091E0BCDBCC5FC0931C01CF910895CF9335
:1009C000DF9360912D01635067FDC4C080912A01BF
:1009D000CCE0D0E0C81BD109CF5CDE4F809129016B
:1009E0008D3209F0A6C0683009F0B2C083EC809364
:1009F00011018AE580936A001092F4008881807664
:100A000039F0CE018BDD982F8F3F09F481C087C06C
:100A10009A8110921A018981811106C010921B01DE
:100A20002AE131E092E06FC0853019F490932E01F5
:100A300067C0863009F04EC08B81813041F48CE86C
:100A400090E090932C0180932B0192E13FC0823083
:100A500041F48AE690E090932C0180932B0192E27E
:100A600035C08330F1F4911108C086EC90E090938A
:100A70002C0180932B0194E029C0913041F48AEB42
:100A800090E090932C0180932B019CE01FC092304A
:100A9000E1F48EE990E090932C0180932B019CE18E
:100AA00015C0813241F48CE790E090932C01809343
:100AB0002B0199E00BC0823241F486E290E09093E2
:100AC0002C0180932B0194E401C090E080E480939A
:100AD000F40025C0883069F0893019F49093300112
:100AE0000FC08A3049F08B3059F48BE480931D019C
:100AF00007C020E331E002C02AE131E091E003C009
:100B00002AE131E090E030932C0120932B0107C0C3
:100B1000888187FD9E8180E88093F40007C08F81E3
:100B2000811104C08E81891708F4982F9093690071
:100B30000FC08091F40087FF0BC0CE019EDD8F3F78
:100B400021F48EE180936A0003C081111092690044
:100B500010922D0180916A0084FF56C08091690037
:100B60008F3F09F451C0C82F893008F0C8E08C1BB2
:100B7000809369009091110188E889278093110181
:100B8000CC2389F12091F40027FF08C06C2F82E16B
:100B900091E0E6DCC82F893088F525C080912B01D3
:100BA00090912C0126FF0BC0A2E1B1E0FC012C2F9B
:100BB000280F34913D9331962E13FBCF09C0DC01F1
:100BC000E2E1F1E02C2F2E0F3D9131932E13FCCF5B
:100BD0002FEF2C0F30E02F5F3F4F820F931F90932A
:100BE0002C0180932B016C2F82E191E09FDACC5F86
:100BF000CC3041F08FEF8093690004C08FEF809379
:100C00006900CEE1C0936A0084E190B3957031F43D
:100C10008150D9F710922E0110922801DF91CF91C7
:100C2000089585B7836085BF8BB780648BBFECE187
:100C3000F1E08BE481838AE580830895FB01DC0188
:100C400002C001900D9241505040D8F70895DC0148
:100C500001C06D9341505040E0F70895DC01CB0195
:100C6000FC01E199FECF06C0FFBBEEBBE09A3196D6
:100C70000DB20D9241505040B8F70895E199FECF62
:100C80009FBB8EBBE09A99278DB30895DC01CB0101
:100C900002C02D9105D041505040D8F70895262F1D
:100CA000E199FECF9FBB8EBB2DBB0FB6F894E29AA5
:0C0CB000E19A0FBE01960895F894FFCF62
:0C0CBC002A1D10030201010D04FF5A0064
:00000001FF
