:1000000064C098C07DC07CC07BC07AC079C078C015
:1000100077C076C075C074C073C072C071C070C044
:100020006FC06EC06DC005010906A10185010507FD
:1000300019E029E715002501750195088102950150
:1000400075082565190029658100C00600FF0901B2
:10005000A1018502150026FF007508958009009111
:1000600000750895800900B100C009022200010155
:10007000008032090400000103010100092101018F
:1000800000012244000705810308000A1201100143
:1000900000000008C016DC060001010200011C037C
:1000A0004B006500790062006F006100720064001F
:1000B0002000760031002E0030000C034D004B0074
:1000C00042006F0078000403090411241FBECFE52D
:1000D000D4E0DEBFCDBF10E0A0E6B0E0EEE4FBE090
:1000E00002C005900D92A436B107D9F721E0A4E62D
:1000F000B0E001C01D92AD33B207E1F7D7D225C5FC
:100100007FCFA82FB92F80E090E041E050EA6095C2
:1001100030E009C02D9182279795879510F08427AC
:100120009527305EC8F36F5FA8F30895EADF8D93DB
:100130009D930895CF93CFB7CF93C395809BE9F755
:10014000809B09C0809B07C0809B05C0809B03C02B
:10015000809B01C0A3C0DF93C0912001DD27C95D52
:10016000DE4F809B02C0DF91EBCF2F930F931F9345
:1001700000B32FEF00FB20F94F933F9310B34FEFE5
:10018000012700FB21F93BE031C04E7F012F10B366
:10019000216028C0102F4D7F2260000000B329C0CD
:1001A0004B7F2460012F000010B32BC010B3477F9A
:1001B00028602AC04F7E00B320612CC04F7D10B351
:1001C00020622FC04F7B00B3206432C0422700B3AF
:1001D00049934FEF0000102710FB20F910B3157062
:1001E000C9F1297F91F2012700FB21F900B3237F98
:1001F00089F2315058F1102710FB22F910B3277EF5
:1002000079F2012700FB23F92F7C81F200B310273C
:1002100010FB24F92F7971F200C010B3012700FB05
:1002200025F92F7359F200C000B3102710FB26F9EF
:10023000223040F200C010B3012700FB27F9243020
:1002400028F64F77206810B30000F9CF10E41ABFEA
:10025000002719C03B503195C31BD04010E41ABF92
:100260000881033CF9F00B34E9F020911E0119815B
:10027000110F1213EDCF4A81441F093641F10D329F
:1002800011F0013E29F7009325013F914F911F91F5
:100290000F912F91DF91CAB7C6FD4FCFCF91CFBF3E
:1002A000CF91189520912501222379F310912301F4
:1002B000112369F534306AF13093230120931F0133
:1002C000109120013BE0311B3093200122C00091AE
:1002D00023010130E4F40AE54F7049F430916300E2
:1002E00034FD19C000936300C7E0D1E018C030911D
:1002F000120134FD10C000931201C3E1D1E00FC020
:100300002795A8F45150A9F4220F0000F9CF4AE52F
:1003100003C042ED01C0432FC4E1D0E032E011B38D
:100320001560909A11BB02B320E415E05F9301279A
:1003300056E002BB279520F4515021F4220FF9CF4B
:10034000012756E000003B5A02BBD0F2279528F463
:10035000515029F4220F0000F9CF012756E02795CC
:1003600002BB20F4515021F4220FF9CF012756E0AF
:100370002991332302BB21F60A7F10912401110F2A
:10038000C651D04002BB11F010931E0110E41ABFF9
:10039000016011B31A7F402F4A7F5F9100C000C0F7
:1003A00002BB11BB42BB71CF839B05C080B383FBF3
:1003B000882780F901C080E0849B09C020B32071A8
:1003C00030E093E0359527959A95E1F7822B90E000
:1003D0000895CF93DF93CDB7DEB72D970FB6F8947E
:1003E000DEBF0FBECDBF811102C0DEDF8F5F823066
:1003F00089F038F48130D9F44DE050E067E270E0E4
:100400000DC0833079F0843091F44DE050E060E02D
:1004100070E004C04DE050E06AE170E0CE0101966A
:1004200066D30FC04DE050E06DE070E0F7CF209153
:100430006100FE013196CE010E962193E817F9076F
:10044000E1F71092EB001092EC00FE01319680E093
:1004500090E0DC01A551BF4F12961C92129721919A
:1004600013962C9302968A31910599F72D960FB623
:10047000F894DEBF0FBECDBFDF91CF910895CF932B
:10048000DF93CDB7DEB7E4970FB6F894DEBF0FBEAB
:10049000CDBF80916500813009F042C08DE0E6E675
:1004A000F0E0DE01989601900D928A95E1F78DE0DB
:1004B000E3E7F0E0DE015B9601900D928A95E1F7AB
:1004C0008DE0E0E8F0E0DE011E9601900D928A9545
:1004D000E1F78DE0EDE8F0E0DE01119601900D927C
:1004E0008A95E1F74DE050E067E270E0CE01889632
:1004F00016D34DE050E06AE170E0CE014B960FD389
:100500004DE050E06DE070E0CE010E9608D34DE076
:1005100050E060E070E0CE01019601D345DF59DF85
:10052000E4960FB6F894DEBF0FBECDBFDF91CF913A
:100530000895FC0190819076903259F48181877FF3
:10054000813039F480E88093E5001092E6008FEF67
:10055000089580E00895CF92DF92FF920F931F934A
:10056000CF93DF93CDB7DEB7E4970FB6F894DEBF35
:100570000FBECDBF6C01162F8091E500803809F0C9
:100580004BC04DE050E067E270E0CE018896AFD2FC
:100590004DE050E06AE170E0CE014B96A8D24DE00C
:1005A00050E06DE070E0CE010E96A1D24DE050E03B
:1005B00060E070E0CE0101969AD241E850E06FEF22
:1005C00070E084E690E08CD28091600080936400BB
:1005D0008DE0FE01B896A5E6B0E001900D928A95F7
:1005E000E1F78DE0FE017B96A2E7B0E001900D926D
:1005F0008A95E1F78DE0FE013E96AFE7B0E001900D
:100600000D928A95E1F78DE0FE013196ACE8B0E0FD
:1006100001900D928A95E1F70091E500011708F429
:10062000102FF090E600412F50E06F2D70E06C59D4
:100630007F4FC6014CD2F10EF092E600011B0093F1
:10064000E500812FE4960FB6F894DEBF0FBECDBF54
:10065000DF91CF911F910F91FF90DF90CF90089580
:100660001F93CF93DF93C091E500C11103C007DF53
:1006700081E018C0D62FC61708F4DC2F1091E600D1
:10068000212F30E04D2F50E0BC01C9018C599F4F04
:100690001ED21D0F1093E600CD1BC093E500CC23A6
:1006A00031F380E0DF91CF911F910895CF93DF93D5
:1006B000CDB7DEB72D970FB6F894DEBF0FBECDBF16
:1006C0009EE088E10FB6F894A89581BD0FBE91BD5C
:1006D0008FEF88BB17BA85BB14BA8AEF82BB87E05D
:1006E00081BB82E081BB85E083BF86E390E00FD2CF
:1006F000813009F445C0209161008E010F5F1F4FCA
:10070000F80180E0982F920F91938F5F8D30D1F791
:1007100061E086E390E00CD26DE085E390E008D2E2
:100720006091610084E390E003D24DE050E067E225
:1007300070E0C801F4D14DE050E06AE170E0C8011A
:10074000EED14DE050E06DE070E0C801E8D14DE041
:1007500050E060E070E0C801E2D11092EB0010922E
:10076000EC0080E090E0FC01E551FF4F1282D801DF
:100770002D918D01238302968A319105A1F702C044
:1007800013DE27DE7CDE96D1789400E0E12CFF2496
:10079000F394A8955DD086B380FF0CC081FF0CC098
:1007A00082FF0CC083B380FF0BC081FF0BC080B3FE
:1007B00010E009C01AE007C019E005C018E003C046
:1007C00017E001C016E0E11201E008B600FCF8BE37
:1007D000011102C0E12EDDCF8091120184FD02C023
:1007E00001E0F8CFE12FF0E0EE0FFF1FE551FF4FE2
:1007F00081818093E90080818093E800F092E70096
:1008000063E087EE90E002D000E0E4CFCF93C62F04
:100810002091120124FF07C03091130128E82327FB
:100820002093130103C02AE520931201DC01E4E1C7
:10083000F1E08C2F8E0F9D9191938E13FCCF6C2F36
:1008400084E191E073DCCC5FC0931201CF910895F5
:10085000CF93DF9360912301635067FDC4C0809103
:100860002001CCE0D0E0C81BD109C95DDE4F8091EA
:100870001F018D3209F0A6C0683009F0B2C083ECC8
:10088000809307018AE5809363001092EA008881D3
:10089000807639F0CE014DDE982F8F3F09F481C06C
:1008A00087C09A81109210018981811106C010922F
:1008B000110120E131E092E06FC0853019F490938E
:1008C000240167C0863009F04EC08B81813041F42D
:1008D0008CE890E0909322018093210192E13FC047
:1008E000823041F48AE690E09093220180932101C6
:1008F00092E235C08330F1F4911108C086EC90E0AB
:10090000909322018093210194E029C0913041F419
:100910008AEB90E090932201809321019CE01FC01C
:100920009230E1F48EE990E09093220180932101CE
:100930009CE115C0813241F48CE790E09093220154
:100940008093210199E00BC0823241F486E290E06D
:10095000909322018093210194E401C090E080E40F
:100960008093EA0025C0883069F0893019F49093AB
:1009700026010FC08A3049F08B3059F48BE4809304
:10098000130107C026E231E002C020E131E091E02E
:1009900003C020E131E090E0309322012093210157
:1009A00007C0888187FD9E8180E88093EA0007C0A8
:1009B0008F81811104C08E81891708F4982F90933C
:1009C00062000FC08091EA0087FF0BC0CE0148DEB5
:1009D0008F3F21F48EE18093630003C08111109258
:1009E0006200109223018091630084FF56C08091C1
:1009F00062008F3F09F451C0C82F893008F0C8E069
:100A00008C1B809362009091070188E8892780936E
:100A10000701CC2389F12091EA0027FF08C06C2F41
:100A200088E091E098DDC82F893088F525C0809155
:100A300021019091220126FF0BC0A8E0B1E0FC014A
:100A40002C2F280F34913D9331962E13FBCF09C0E4
:100A5000DC01E8E0F1E02C2F2E0F3D9131932E13B5
:100A6000FCCF2FEF2C0F30E02F5F3F4F820F931FF3
:100A700090932201809321016C2F88E091E056DB56
:100A8000CC5FCC3041F08FEF8093620004C08FEFD9
:100A900080936200CEE1C093630084E190B39570CF
:100AA00031F48150D9F71092240110921E01DF9188
:100AB000CF91089585B7836085BF8BB780648BBF66
:100AC000E2E1F1E08BE481838AE580830895FB0114
:100AD000DC0102C001900D9241505040D8F70895BA
:100AE000DC0101C06D9341505040E0F70895DC01F6
:100AF000CB01FC01E199FECF06C0FFBBEEBBE09A43
:100B000031960DB20D9241505040B8F70895E199D9
:100B1000FECF9FBB8EBBE09A99278DB30895DC0171
:100B2000CB0102C02D9105D041505040D8F7089517
:100B3000262FE199FECF9FBB8EBB2DBB0FB6F8943D
:0E0B4000E29AE19A0FBE01960895F894FFCF55
:040B4E000D04FF5A39
:00000001FF
