:1018000050C084C069C068C067C066C065C064C09D
:1018100063C062C061C060C05FC05EC05DC05CC0CC
:101820005BC05AC059C00403090412036F00620070
:101830006400650076002E0061007400100348000B
:101840004900440042006F006F0074001201100153
:1018500000000008C016DF050001010200010902B6
:10186000220001010080960904000001030000002D
:10187000092101010001222100070581030800C898
:101880000600FF0901A101150026FF00750885016A
:1018900095060900B20201850295830900B2020192
:1018A000C00011241FBECFE5D4E0DEBFCDBF10E0E5
:1018B000A0E6B0E0ECEBFEE102C005900D92AA3686
:1018C000B107D9F710E0AAE6B0E001C01D92AB392C
:1018D000B107E1F74CD1F0C293CFA82FB92F80E028
:1018E00090E041E050EA609530E009C02D918227F8
:1018F0009795879510F084279527305EC8F36F5F22
:10190000A8F30895EADF8D939D930895CF93CFB701
:10191000CF93C395809BE9F7809B09C0809B07C04C
:10192000809B05C0809B03C0809B01C0A3C0DF9348
:10193000C0917E00DD27CB57DF4F809B02C0DF9137
:10194000EBCF2F930F931F9300B32FEF00FB20F9E2
:101950004F933F9310B34FEF012700FB21F93BE07A
:1019600031C04E7F012F10B3216028C0102F4D7F52
:101970002260000000B329C04B7F2460012F0000CB
:1019800010B32BC010B3477F28602AC04F7E00B32E
:1019900020612CC04F7D10B320622FC04F7B00B35D
:1019A000206432C0422700B349934FEF0000102754
:1019B00010FB20F910B31570C9F1297F91F20127AE
:1019C00000FB21F900B3237F89F2315058F1102731
:1019D00010FB22F910B3277E79F2012700FB23F9CF
:1019E0002F7C81F200B3102710FB24F92F7971F2BC
:1019F00000C010B3012700FB25F92F7359F200C076
:101A000000B3102710FB26F9223040F200C010B3BB
:101A1000012700FB27F9243028F64F77206810B300
:101A20000000F9CF10E41ABF002719C03B503195D0
:101A3000C31BD04010E41ABF0881033CF9F00B34FB
:101A4000E9F020917C001981110F1213EDCF4A812A
:101A5000441F093641F10D3211F0013E29F7009380
:101A600083003F914F911F910F912F91DF91CAB742
:101A7000C6FD4FCFCF91CFBFCF9118952091830056
:101A8000222379F310918100112321F5343022F1C2
:101A90003093810020937D0010917E003BE0311B4C
:101AA00030937E0019C00091810001309CF40AE55A
:101AB0004F7081F43091600034FD10C000936000DD
:101AC000C1E7D0E00FC02795A8F45150A9F4220F28
:101AD0000000F9CF4AE503C042ED01C0432FC4E145
:101AE000D0E032E011B31560909A11BB02B320E44C
:101AF00015E05F93012756E002BB279520F4515073
:101B000021F4220FF9CF012756E000003B5A02BB17
:101B1000D0F2279528F4515029F4220F0000F9CF74
:101B2000012756E0279502BB20F4515021F4220FE3
:101B3000F9CF012756E02991332302BB21F60A7F12
:101B400010918200110FC651D04002BB11F01093CA
:101B50007C0010E41ABF016011B31A7F402F4A7F46
:101B60005F9100C000C002BB11BB42BB7ACF8BEFBC
:101B700081BB88E082BB88E28A95F1F783998BC1AB
:101B800081E08BBF82E08BBF85B7836085BF8BB759
:101B900080648BBF889A20E0A89588EB9BE0019732
:101BA000F1F72150C9F788987894FF2400E0A895B0
:101BB00090918100392F335037FD19C180917E00FB
:101BC000ACE0B0E0A81BB109AB57BF4F80917D00DE
:101BD0008D3209F0BDC0383009F007C183EC809325
:101BE00071008AE58093600010926A002C91822F28
:101BF000807611969C9111978823E1F0993079F4C1
:101C000012968C911297823031F410926D0027FD5C
:101C10008CC09FEF8CC081E080936E004BC19130EF
:101C200009F048C182E690E09093800080937F00A5
:101C300027E081C012968C91129710927A00992316
:101C400031F410927B008AE790E022E069C0953081
:101C500019F48093820061C0963009F04EC013964B
:101C60008C911397813019F48CE498E11DC0823077
:101C700041F48EE598E19093800080937F0022E20A
:101C800038C0833009F512968C911297882341F45D
:101C900086E298E19093800080937F0024E029C041
:101CA000813041F48AE298E19093800080937F0034
:101CB00022E11FC08230E1F48CE398E19093800030
:101CC00080937F0020E115C0813241F480E798E1E4
:101CD0009093800080937F0029E00BC0823241F412
:101CE00080E898E19093800080937F0021E201C01A
:101CF00020E080E480936A001EC0983019F484E8E4
:101D000090E009C0993019F48093840006C09A309D
:101D100021F48AE790E021E003C08AE790E020E028
:101D20009093800080937F0006C016969C9180E877
:101D300080936A000AC017968C911797882321F424
:101D400016969C91921708F0922F909361004DC0C7
:101D500080916A0087FF49C0C0916B00D0916C00F0
:101D600080916D00882349F41196CC9111971296B9
:101D7000DC9112971496392F3750632F680F6093B8
:101D80006D00AE014F7351F4F89483E0FE0180932F
:101D90005700E895789407B600FCFDCFF894AE01A3
:101DA0008D919C91119721E0FE010C012093570029
:101DB000E895112478942296FE01EF7351F4F8947B
:101DC00085E0FA0180935700E895789407B600FC07
:101DD000FDCF325011F01296D4CFD0936C00C09347
:101DE0006B0067FF02C01092610010928100809129
:101DF000600084FF3CC0809161008F3FC1F1182FCB
:101E0000893008F018E0811B809361008091710097
:101E100098E88927809371001123E1F0E0917F0019
:101E2000F091800080916A0086FF09C0912FA2E79F
:101E3000B0E084918D9331969150D9F707C0912FDE
:101E4000A2E7B0E081918D939150E1F7F09380008B
:101E5000E0937F0082E790E0612F54DD612F6C5F9B
:101E60006C3019F08FEF809361006093600094E113
:101E700080B3857031F49150D9F71092820010929E
:101E80007C0080916E00882321F0FA9411F40150B7
:101E900011F0839B8CCEF89481E180935700E895F4
:101EA0001BBE15BE81E08BBF1BBEE0916F00F091A1
:0C1EB0007000099520E03FCFF894FFCFB0
:0A1EBC005AFF014000002000000062
:0400000300001800E1
:00000001FF
